:020000040000fa
:080000000001040000000000f3
:020000040000fa
:04000800c80100002b
:020000040000fa
:04000c00c801000027
:020000040000fa
:04001000c801000023
:020000040000fa
:04001400c80100001f
:020000040000fa
:04001800c80100001b
:020000040000fa
:04001c00c801000017
:020000040000fa
:04002000c801000013
:020000040000fa
:04002400c80100000f
:020000040000fa
:04002800c80100000b
:020000040000fa
:04002c00c801000007
:020000040000fa
:04003000c801000003
:020000040000fa
:04003400c8010000ff
:020000040000fa
:04003800c8010000fb
:020000040000fa
:04003c00c8010000f7
:020000040000fa
:04004000c8010000f3
:020000040000fa
:04004400c8010000ef
:020000040000fa
:04004800c8010000eb
:020000040000fa
:04004c00c8010000e7
:020000040000fa
:04005000c8010000e3
:020000040000fa
:04005400c8010000df
:020000040000fa
:04005800c8010000db
:020000040000fa
:04005c00c8010000d7
:020000040000fa
:04006000c8010000d3
:020000040000fa
:04006400c8010000cf
:020000040000fa
:04006800c8010000cb
:020000040000fa
:04006c00c8010000c7
:020000040000fa
:04007000c8010000c3
:020000040000fa
:04007400c8010000bf
:020000040000fa
:04007800c8010000bb
:020000040000fa
:04007c00c8010000b7
:020000040000fa
:04008000c8010000b3
:020000040000fa
:04008400c8010000af
:020000040000fa
:04008800c8010000ab
:020000040000fa
:04008c00c8010000a7
:020000040000fa
:04009000c8010000a3
:020000040000fa
:04009400c80100009f
:020000040000fa
:04009800c80100009b
:020000040000fa
:04009c00c801000097
:020000040000fa
:0400a000c801000093
:020000040000fa
:0400a400c80100008f
:020000040000fa
:0400a800c80100008b
:020000040000fa
:0400ac00c801000087
:020000040000fa
:0400b000c801000083
:020000040000fa
:0400b400c80100007f
:020000040000fa
:0400b800c80100007b
:020000040000fa
:0400bc00c801000077
:020000040000fa
:0400c000c801000073
:020000040000fa
:0400c400c80100006f
:020000040000fa
:0400c800c80100006b
:020000040000fa
:0400cc00c801000067
:020000040000fa
:0400d000c801000063
:020000040000fa
:0400d400c80100005f
:020000040000fa
:0400d800c80100005b
:020000040000fa
:04010800c80100002a
:020000040000fa
:04010c00c801000026
:020000040000fa
:04011000c801000022
:020000040000fa
:04011400c80100001e
:020000040000fa
:04011800c80100001a
:020000040000fa
:04011c00c801000016
:020000040000fa
:04012000c801000012
:020000040000fa
:04012400c80100000e
:020000040000fa
:04012800c80100000a
:020000040000fa
:04012c00c801000006
:020000040000fa
:04013000c801000002
:020000040000fa
:04013400c8010000fe
:020000040000fa
:04013800c8010000fa
:020000040000fa
:04013c00c8010000f6
:020000040000fa
:04014000c8010000f2
:020000040000fa
:04014400c8010000ee
:020000040000fa
:04014800c8010000ea
:020000040000fa
:04014c00c8010000e6
:020000040000fa
:04015000c8010000e2
:020000040000fa
:04015400c8010000de
:020000040000fa
:04015800c8010000da
:020000040000fa
:04015c00c8010000d6
:020000040000fa
:04016000c8010000d2
:020000040000fa
:04016400c8010000ce
:020000040000fa
:04016800c8010000ca
:020000040000fa
:04016c00c8010000c6
:020000040000fa
:04017000c8010000c2
:020000040000fa
:04017400c8010000be
:020000040000fa
:04017800c8010000ba
:020000040000fa
:04017c00c8010000b6
:020000040000fa
:04018000c8010000b2
:020000040000fa
:04018400c8010000ae
:020000040000fa
:04018800c8010000aa
:020000040000fa
:04018c00c8010000a6
:020000040000fa
:04019000c8010000a2
:020000040000fa
:04019400c80100009e
:020000040000fa
:04019800c80100009a
:020000040000fa
:04019c00c801000096
:020000040000fa
:0401a000c801000092
:020000040000fa
:0401a400c80100008e
:020000040000fa
:0401a800c80100008a
:020000040000fa
:0401ac00c801000086
:020000040000fa
:0401b000c801000082
:020000040000fa
:0401b400c80100007e
:020000040000fa
:0401b800c80100007a
:020000040000fa
:0401bc00c801000076
:020000040000fa
:0401c000c801000072
:020000040000fa
:0401c400c80100006e
:020000040000fa
:0401c800c80100006a
:020000040000fa
:0401cc00c801000066
:020000040000fa
:0401d000c801000062
:020000040000fa
:0401d400c80100005e
:020000040000fa
:0401d800c80100005a
:020000040000fa
:100200006f8020000e9f20000e018800000000007b
:10021000000020000000e000020032000001200089
:1002200020028800140007005b0007000000e000c7
:1002300003003a0000742000010020000200370093
:100240000000200001002000810f7000010032003a
:1002500014000700000020000000e000020032004f
:100260000000020000000000f6060200000000008e
:100270000040da000000fe004440a9000000200019
:100280000000e0000300320000002000a001880010
:100290004440a800000006008a1f78008b1f7800e9
:1002a0000000060091018800800478000000eb0047
:1002b0001a003700e284440032a0b4009905ba0065
:1002c000e284440032a0b4009906ba00e2844400fb
:1002d00032a0b4000006eb00476fde00fd07b2005d
:1002e000636ce10003003a00ebff07000000eb0045
:1002f0000a003700606ce10004003a00005deb008a
:100300008b05e900fdff3e00040037006168e10055
:10031000010032000086eb000b00070019c7ba008d
:100320001905ba000e04e00003003a000a00e000dc
:10033000e0ff3a0000000600fe07b2009e018800c0
:100340008a047800f5ff3700395dba008b05e900b3
:100350000c003200295dba008b05e900080032006c
:100360000c00e00003003a00e284440032a0b40034
:10037000f5ff370019ddba008b05e900faff3a00f6
:100380008904e800e184440032a0b40000000600c3
:0c0390000040da000000fe000000050044
:020000040000fa
:10039c000000fa00f0168000c000b300f0168800d0
:1003ac00002022003010880030012000201088002e
:1003bc0020108000e20f500002003e0030002000b0
:1003cc002010880000ee2200010020009b02070094
:1003dc0007e2a8000000000041108000000024008b
:1003ec00008060000000e000fbff3a000642a8001d
:1003fc000000000030108000640060000000e0008d
:10040c00fcff3a000080fa00000006000000fa0031
:10041c0000000000411080000000240000806000fb
:10042c000000e000fbff3a000642a80000000000bc
:10043c0030108000640060000000e000fcff3a0017
:10044c000080fa00000006000200fa00004f78005d
:10045c0011479800000000004110800000002400ab
:10046c00008060000000e000fbff3a000602a800dc
:10047c000000000030108000610060000000e0000f
:10048c00fcff3a001e4090000004e00002003a001d
:10049c001e04a100010037001e04a0001e80fb00fa
:1004ac001010880000000000401080006100600007
:1004bc000000e000fcff3a00411080000000280022
:1004cc00008060000000e00002003a000040eb00f9
:1004dc0002003700cdff070010c0b3000080fa0007
:1004ec00000006000200fa00004f78001147980047
:1004fc00000000004110800000002400008060001b
:10050c000000e000fbff3a000622a80000000000fb
:10051c0030108000620060000000e000fcff3a0038
:10052c001e4090000004e00002003a001e04a100ee
:10053c00010037001e04a0001e80fb001010880074
:10054c000000000040108000610060000000e0002e
:10055c00fcff3a0041108000000028000080600081
:10056c000000e00002003a000040eb0002003700ff
:10057c00a6ff070010c0b3000080fa0000000600c0
:10058c000200fa00004f78000000000041108000cb
:10059c0000002400008060000000e000fbff3a0037
:1005ac001e80fb001010880000000000401080002e
:1005bc00610060000000e000fcff3a004110800088
:1005cc0000002800008060000000e00002003a00fb
:1005dc000040eb00020037008cff070010c0b30096
:1005ec000080fa00000006000000fa000000000085
:1005fc004110800000002400008060000000e0003a
:10060c00fbff3a000662a80000000000000000009a
:10061c0040108000620060000000e000fcff32002f
:10062c0006a2a9000682a80000000000301080007d
:10063c00700060000000e000fcff3a000010800039
:10064c00004078000080fa00000006000000fa006c
:10065c0000000000411080000000240000806000b9
:10066c000000e000fbff3a000662a800000000005a
:10067c000000000040108000620060000000e000fc
:10068c00fcff320006a2a8000682a80000000000b1
:10069c0030108000700060000000e000fcff3a00a9
:1006ac0006a2a90000108000004078000080fa002b
:1006bc00000006000400fa00004f78001147980073
:1006cc00224798008040eb001e4078005eff070038
:1006dc008040eb001e4078005bff07000004e00048
:1006ec000200320010c0b300120037001e40900010
:1006fc00a3ff07001e409000a1ff07000004e000cc
:10070c000200320010c0b3000a0037002e409000e7
:10071c009bff07002e40900099ff07000004e000ab
:10072c000200320010c0b3000200370037ff070090
:10073c000040eb000080fa00000006000200fa0006
:10074c00004f7800114798008040eb001e40780065
:10075c003dff07008040eb001e4078003aff070089
:10076c000004e0000200320010c0b30009003700a2
:10077c001e40900082ff07001e40900080ff070083
:10078c000004e0000200320010c0b300010037008a
:10079c000040eb000080fa00000006000800fa00a0
:1007ac00204798003147980022079800634798002b
:1007bc008040eb002e40900023ff07008040eb00b0
:1007cc002e40900020ff07000004e00002003200e1
:1007dc0010c0b300230037003e40900068ff0700b4
:1007ec003e40900066ff07000004e000020032006b
:1007fc0010c0b3001b0037000040eb00004f780026
:10080c00130037001e80fb00ae00900000804000fb
:10081c00104078001e4fe80059ff07001e80fb00b7
:10082c00ae00900000804000104078001e4fe800a1
:10083c0053ff07000004e0000200320010c0b300b8
:10084c00080037006e4090000040e80060479800b8
:10085c006e4090000004e000eaff3a00ebfe070057
:10086c000040eb000080fa00000006000400fa00d3
:10087c00004f780011479800120798008040eb0059
:10088c001e407800f0fe07008040eb001e40780010
:10089c00edfe07000004e0000200320010c0b300bf
:1008ac00170037001e40900035ff07001e409000d7
:1008bc0033ff07000004e0000200320010c0b30058
:1008cc000f00370011c0b3001e40780005ff070071
:1008dc0011c0b3001e40780002ff07000004e000c6
:1008ec000200320010c0b3000500370057ff0700ac
:1008fc009e00900080487800c4fe07000040eb008a
:10090c000080fa00000006000800fa00881f78003a
:10091c0020479800314798002207980063479800b9
:10092c008040eb002e409000c7fe07008040eb009b
:10093c002e409000c4fe07000004e00002003200cc
:10094c0010c0b300290037003e4090000cff070098
:10095c003e4090000aff07000004e0000200320055
:10096c0010c0b3002100370011c0b3002e4090001e
:10097c00dcfe070011c0b3002e409000d9fe07002a
:10098c000004e0000200320010c0b3001700370072
:10099c000040eb00004f7800090037001e80fb0080
:1009ac00ae009000008440000fff0700004c780060
:1009bc001e4fe8006e4090000040e9006047980030
:1009cc006e409000e14f5000f4ff3e001e80fb0093
:1009dc00ae009000008440001cff0700004c780023
:1009ec001e4fe80089fe07000040eb004f04780022
:1009fc000080fa00000006000000fa0000e4270066
:100a0c00510020000d0107008000eb003000200099
:100a1c003b000700004c2d001100200007010700cf
:100a2c008000eb003000200035000700009620000d
:100a3c0001002000010107008000eb0030002000c5
:100a4c002f000700004b200001002000fb000700d6
:100a5c008000eb002000200029000700004b200044
:100a6c0001002000f50007008000eb0020002000b2
:100a7c00230007008000eb0080002000200007000e
:100a8c00004b200001002000ec0007008000eb0070
:100a9c000000eb001a0007008000eb00e0002000d3
:100aac0017000700004b200001002000e3000700a6
:100abc008000eb000000eb00110007008000eb0051
:100acc00100020000e00070000ca280001002000c2
:100adc00da0007008000eb000000eb0008000700c4
:100aec008000eb006000200005000700004b200098
:100afc0001002000d10007000080fa000000060071
:100b0c000400fa00000f7800110798009e0078008e
:100b1c00d11688001e0090000000e00002003a0090
:100b2c00cfa2a90001003700cfa2a800cfc2a90014
:100b3c008001200001002000c0000700cfc2a800e7
:100b4c000080fa00000006000400fa00000f780094
:100b5c0011079800000f20001e0060004400de000a
:100b6c009e009000e6ff07009e0078006f806000fa
:100b7c009e009000e2ff0700004b200001002000c7
:100b8c00ae0007000080fa00000006000400fa0026
:100b9c00100798000040eb00004f78000040eb007d
:100bac00004f7800080037001e80fb00000040005a
:100bbc009e00900000804000100078001100200082
:100bcc00e1ff07001e4fe8001e407800f34f500075
:100bdc00f5ff36000080fa00000006000200fa0063
:100bec00004f780000c8bf000004e00003003a008a
:100bfc001e417800018020008248780000c8bf00a8
:100c0c009e40780080cf500020003a001e407800b3
:100c1c00ef4f50001d00320004c8bf000040e80038
:100c2c0004e8b7000168ef0004c8bf00e34f5000b0
:100c3c000500360002c8bf000004e00002003a00c4
:100c4c0010c0b30002e8b70041802000914078004a
:100c5c0040c6b30080cf50000200360020c0b30065
:100c6c0002e8b700418020009140780080ccb300ae
:100c7c0080cf50001300360030c0b30002e8b7003c
:100c8c0080ccb30004e8b7000e0037000468ef0016
:100c9c000068ef0002c8bf000004e000030032004f
:100cac0001c8bf000040e80001e8b70001c8bf0060
:100cbc00e34f50000300360030c0b30001e8b7002a
:100ccc000268ef0000c8bf000080fb004200dd009e
:100cdc008040780002c8bf0000c0700000e8b70078
:100cec0000c8bf000080fa00000006000200fa00f5
:100cfc00000f78001e0078008000eb00f20020004e
:100d0c0003002000820f5000838f580031003e00fa
:100d1c00006001000f003700100037001100370091
:100d2c00120037001300370014003700150037008d
:100d3c00160037001700370018003700190037006d
:100d4c001a0037001b0037001c0037001d0037004d
:100d5c001e003700000320001f0037001003200086
:100d6c001d003700200320001b003700300320003b
:100d7c0019003700400320001700370050032000f3
:100d8c0015003700600320001300370070032000ab
:100d9c0011003700800320000f0037009003200063
:100dac000d003700100420000b0037002004200039
:100dbc0009003700300420000700370040042000f1
:100dcc0005003700500420000300370060042000a9
:100ddc0001003700f00320000080fa00000006003c
:100dec000200fa000080eb0040158800f0032000a0
:100dfc0030168800cc22ef0000102000c0168800ae
:100e0c00100020009016880080a92300100888008c
:100e1c0000012000200888008460a90005e1a800da
:100e2c000040eb00004f780010c0b3001047980052
:0c0e3c000000eb000080fa00000006003f
:020000040000fa
:100e4800f03fb1000180b10006003500ee03090053
:100e580000000000403fb1000180b100fbff3d00f1
:100e68001000b000203fb0000200350000800900eb
:080e780000000000000006006c
:020000040000fa
:100e8000000800000400000000000000040800004a
:100e9000020000000200000001000000000000004d
:020000040000fa
:0200000401f009
:04000000f6bf000047
:020000040000fa
:0200000401f009
:04000400ff7f00007a
:020000040000fa
:0200000401f009
:04000800ff7f000076
:020000040000fa
:0200000401f009
:04001400ffffff00eb
:020000040000fa
:0200000401f009
:04001800ffff0000e6
:00000001FF
